:1000000012C020C078C01DC01CC01BC01AC019C0BF
:1000100018C017C016C015C014C013C012C011C03C
:1000200010C00FC00EC011241FBECFEDCDBF10E019
:10003000A0E6B0E001C01D92AF36B107E1F7CED027
:100040007EC1DECF1F920F920FB60F9211242F9315
:100050003F938F939F93F89480916600813079F459
:100060008CB59DB590936C0080936B0085B78260D2
:1000700085BF85B78E7F85BF1092660032C08CB574
:100080009DB5909365008093640020916400309149
:10009000650080916B0090916C008217930758F473
:1000A000809164009091650020916B0030916C000C
:1000B000821B930B0CC080916B0090916C0020917F
:1000C00064003091650080959095820F931F909306
:1000D00068008093670085B7836085BF81E0809367
:1000E000660078949F918F913F912F910F900FBE52
:1000F0000F901F9018951F920F920FB60F92112418
:100100002F933F938F939F93F894809169009091E0
:100110006A008130910589F48CB59DB5909361009A
:100120008093600085B7886085BF85B78B7F85BF6A
:1001300010926A001092690035C08CB59DB59093FD
:100140006E0080936D0020916D0030916E00809163
:100150006000909161008217930758F480916D00C0
:1001600090916E002091600030916100821B930B92
:100170000CC0809160009091610020916D003091E1
:100180006E0080959095820F931F909363008093EB
:10019000620085B78C6085BF81E090E090936A0033
:1001A0008093690078949F918F913F912F910F9048
:1001B0000FBE0F901F90189587B3836087BB81B3E4
:1001C000826481BB08958EB582608EBD08958BB721
:1001D000806C8BBF85B78F6085BF0895F8DFECDF3B
:1001E000F2DFA4D078945CEB4AE587EE93E00197C8
:1001F000F1F700C0000080916700909168000097BF
:1002000011F4C198919880916700909168002091B5
:1002100067003091680062E02C3B360768F421E00B
:100220008E3B920748F08091670090916800652F9F
:10023000681B66BFC19A9198809167009091680091
:10024000209167003091680064E02F31360760F438
:1002500023E08132920740F080916700909168001E
:10026000805286BFC198919A8091670090916800F2
:10027000209167003091680063E02032360738F43F
:1002800022E08D3B920718F046BFC19A919A809167
:10029000620090916300009711F4C0989698809145
:1002A000620090916300209162003091630062E0EF
:1002B0002C3B360768F421E08E3B920748F0809192
:1002C000620090916300652F681B6CBFC09A96987E
:1002D00080916200909163002091620030916300F0
:1002E00064E02F31360760F423E08132920740F05A
:1002F000809162009091630080528CBFC098969A62
:1003000080916200909163002091620030916300BF
:1003100063E02032360708F068CF22E08D3B920779
:1003200008F463CF4CBFC09A969A5FCF83EA80BF30
:1003300083E083BFBA9A16BE8D9A1CBE0895F894C6
:02034000FFCFED
:00000001FF
