:100000000C9434000C9451000C9451000C94510049
:100010000C9451000C9451000C9451000C9451001C
:100020000C9451000C9451000C9451000C9451000C
:100030000C9451000C9451000C9451000C945100FC
:100040000C9451000C9451000C9451000C945100EC
:100050000C9451000C9451000C9451000C945100DC
:100060000C9451000C94510011241FBECFEFD8E026
:10007000DEBFCDBF11E0A0E0B1E0E2E3F1E002C0FD
:1000800005900D92AC30B107D9F711E0ACE0B1E0CA
:1000900001C01D92AC30B107E1F70E9472000C94D0
:1000A00097000C9400001092C50089E18093C40071
:1000B00088E18093C10086E08093C200089590910A
:1000C000C00095FFFCCF8093C6000895CF93DF93C7
:1000D000EC0102C00E945F0089918823D9F7DF916B
:1000E000CF9108958FEF94E3ACE081509040A04011
:1000F000E1F700C000000E94530081E60E945F000B
:100100008FEF90E7A2E081509040A040E1F700C05F
:10011000000080E091E00E9466008FEF90E7A2E08F
:1001200081509040A040E1F700C00000E6CFF89475
:02013000FFCFFF
:0C01320048616C6C6F2057656C740A000B
:00000001FF
